{"abi":[{"type":"function","name":"bridgeERC20To","inputs":[{"name":"_l1Token","type":"address","internalType":"address"},{"name":"_l2Token","type":"address","internalType":"address"},{"name":"_to","type":"address","internalType":"address"},{"name":"_amount","type":"uint256","internalType":"uint256"},{"name":"","type":"uint32","internalType":"uint32"},{"name":"_extraData","type":"bytes","internalType":"bytes"}],"outputs":[],"stateMutability":"nonpayable"},{"type":"event","name":"ERC20BridgeInitiated","inputs":[{"name":"l1Token","type":"address","indexed":true,"internalType":"address"},{"name":"l2Token","type":"address","indexed":true,"internalType":"address"},{"name":"from","type":"address","indexed":true,"internalType":"address"},{"name":"to","type":"address","indexed":false,"internalType":"address"},{"name":"amount","type":"uint256","indexed":false,"internalType":"uint256"},{"name":"extraData","type":"bytes","indexed":false,"internalType":"bytes"}],"anonymous":false}],"bytecode":{"object":"0x6080604052348015600e575f5ffd5b506105628061001c5f395ff3fe608060405234801561000f575f5ffd5b5060043610610029575f3560e01c8063540abf731461002d575b5f5ffd5b610047600480360381019061004291906102bf565b610049565b005b8673ffffffffffffffffffffffffffffffffffffffff166323b872dd3330876040518463ffffffff1660e01b815260040161008693929190610387565b6020604051808303815f875af11580156100a2573d5f5f3e3d5ffd5b505050506040513d601f19601f820116820180604052508101906100c691906103f1565b610105576040517f08c379a00000000000000000000000000000000000000000000000000000000081526004016100fc90610476565b60405180910390fd5b3373ffffffffffffffffffffffffffffffffffffffff168673ffffffffffffffffffffffffffffffffffffffff168873ffffffffffffffffffffffffffffffffffffffff167f7ff126db8024424bbfd9826e8ab82ff59136289ea440b04b39a0df1b03b9cabf8888878760405161017f94939291906104ee565b60405180910390a450505050505050565b5f5ffd5b5f5ffd5b5f73ffffffffffffffffffffffffffffffffffffffff82169050919050565b5f6101c182610198565b9050919050565b6101d1816101b7565b81146101db575f5ffd5b50565b5f813590506101ec816101c8565b92915050565b5f819050919050565b610204816101f2565b811461020e575f5ffd5b50565b5f8135905061021f816101fb565b92915050565b5f63ffffffff82169050919050565b61023d81610225565b8114610247575f5ffd5b50565b5f8135905061025881610234565b92915050565b5f5ffd5b5f5ffd5b5f5ffd5b5f5f83601f84011261027f5761027e61025e565b5b8235905067ffffffffffffffff81111561029c5761029b610262565b5b6020830191508360018202830111156102b8576102b7610266565b5b9250929050565b5f5f5f5f5f5f5f60c0888a0312156102da576102d9610190565b5b5f6102e78a828b016101de565b97505060206102f88a828b016101de565b96505060406103098a828b016101de565b955050606061031a8a828b01610211565b945050608061032b8a828b0161024a565b93505060a088013567ffffffffffffffff81111561034c5761034b610194565b5b6103588a828b0161026a565b925092505092959891949750929550565b610372816101b7565b82525050565b610381816101f2565b82525050565b5f60608201905061039a5f830186610369565b6103a76020830185610369565b6103b46040830184610378565b949350505050565b5f8115159050919050565b6103d0816103bc565b81146103da575f5ffd5b50565b5f815190506103eb816103c7565b92915050565b5f6020828403121561040657610405610190565b5b5f610413848285016103dd565b91505092915050565b5f82825260208201905092915050565b7f7472616e7366657246726f6d206661696c6564000000000000000000000000005f82015250565b5f61046060138361041c565b915061046b8261042c565b602082019050919050565b5f6020820190508181035f83015261048d81610454565b9050919050565b5f82825260208201905092915050565b828183375f83830152505050565b5f601f19601f8301169050919050565b5f6104cd8385610494565b93506104da8385846104a4565b6104e3836104b2565b840190509392505050565b5f6060820190506105015f830187610369565b61050e6020830186610378565b81810360408301526105218184866104c2565b90509594505050505056fea2646970667358221220537572d95bc846995f246401fffbdc0f387238728db62cac325429b8b5eae59164736f6c634300081b0033","linkReferences":{}},"methodIdentifiers":{"bridgeERC20To(address,address,address,uint256,uint32,bytes)":"540abf73"},"id":1}