{"abi":[{"type":"function","name":"baseStandardBridge","inputs":[],"outputs":[{"name":"","type":"address","internalType":"contract IBaseL1StandardBridge"}],"stateMutability":"view"},{"type":"function","name":"bridgeToBase","inputs":[{"name":"_inputTokenPortal","type":"address","internalType":"address"},{"name":"_amount","type":"uint256","internalType":"uint256"},{"name":"_baseRecipient","type":"address","internalType":"address"},{"name":"_baseMinGasLimit","type":"uint32","internalType":"uint32"},{"name":"_withCaller","type":"bool","internalType":"bool"},{"name":"_outboxMessageMetadata","type":"tuple[2]","internalType":"struct DataStructures.OutboxMessageMetadata[2]","components":[{"name":"_epoch","type":"uint256","internalType":"Epoch"},{"name":"_leafIndex","type":"uint256","internalType":"uint256"},{"name":"_path","type":"bytes32[]","internalType":"bytes32[]"}]}],"outputs":[{"name":"","type":"bytes32","internalType":"bytes32"}],"stateMutability":"nonpayable"},{"type":"function","name":"initialize","inputs":[{"name":"_registry","type":"address","internalType":"address"},{"name":"_l2BridgeAddress","type":"bytes32","internalType":"bytes32"},{"name":"_baseStandardBridge","type":"address","internalType":"address"}],"outputs":[],"stateMutability":"nonpayable"},{"type":"function","name":"l2BridgeAddress","inputs":[],"outputs":[{"name":"","type":"bytes32","internalType":"bytes32"}],"stateMutability":"view"},{"type":"function","name":"outbox","inputs":[],"outputs":[{"name":"","type":"address","internalType":"contract IOutbox"}],"stateMutability":"view"},{"type":"function","name":"registry","inputs":[],"outputs":[{"name":"","type":"address","internalType":"contract IRegistry"}],"stateMutability":"view"},{"type":"function","name":"rollup","inputs":[],"outputs":[{"name":"","type":"address","internalType":"contract IRollup"}],"stateMutability":"view"},{"type":"function","name":"rollupVersion","inputs":[],"outputs":[{"name":"","type":"uint256","internalType":"uint256"}],"stateMutability":"view"}],"bytecode":{"object":"0x6080604052348015600e575f5ffd5b506115738061001c5f395ff3fe608060405234801561000f575f5ffd5b5060043610610086575f3560e01c8063ce11e6ab11610059578063ce11e6ab14610102578063d26b3e6e14610120578063f5aa4a421461013c578063f5c796451461016c57610086565b80637b1039991461008a578063934746a7146100a8578063b0893887146100c6578063cb23bcb5146100e4575b5f5ffd5b61009261018a565b60405161009f9190610ad8565b60405180910390f35b6100b06101ae565b6040516100bd9190610b09565b60405180910390f35b6100ce6101b4565b6040516100db9190610b3a565b60405180910390f35b6100ec6101ba565b6040516100f99190610b73565b60405180910390f35b61010a6101df565b6040516101179190610bac565b60405180910390f35b61013a60048036038101906101359190610c32565b610204565b005b61015660048036038101906101519190610d3f565b6104bc565b6040516101639190610b09565b60405180910390f35b61017461096c565b6040516101819190610e04565b60405180910390f35b5f5f9054906101000a900473ffffffffffffffffffffffffffffffffffffffff1681565b60015481565b60045481565b60025f9054906101000a900473ffffffffffffffffffffffffffffffffffffffff1681565b60035f9054906101000a900473ffffffffffffffffffffffffffffffffffffffff1681565b825f5f6101000a81548173ffffffffffffffffffffffffffffffffffffffff021916908373ffffffffffffffffffffffffffffffffffffffff160217905550816001819055505f5f9054906101000a900473ffffffffffffffffffffffffffffffffffffffff1673ffffffffffffffffffffffffffffffffffffffff1663971b0e6b6040518163ffffffff1660e01b8152600401602060405180830381865afa1580156102b3573d5f5f3e3d5ffd5b505050506040513d601f19601f820116820180604052508101906102d79190610e31565b60025f6101000a81548173ffffffffffffffffffffffffffffffffffffffff021916908373ffffffffffffffffffffffffffffffffffffffff16021790555060025f9054906101000a900473ffffffffffffffffffffffffffffffffffffffff1673ffffffffffffffffffffffffffffffffffffffff1663a32fbb7b6040518163ffffffff1660e01b8152600401602060405180830381865afa158015610380573d5f5f3e3d5ffd5b505050506040513d601f19601f820116820180604052508101906103a49190610e31565b60035f6101000a81548173ffffffffffffffffffffffffffffffffffffffff021916908373ffffffffffffffffffffffffffffffffffffffff16021790555060025f9054906101000a900473ffffffffffffffffffffffffffffffffffffffff1673ffffffffffffffffffffffffffffffffffffffff16630d8e6e2c6040518163ffffffff1660e01b8152600401602060405180830381865afa15801561044d573d5f5f3e3d5ffd5b505050506040513d601f19601f820116820180604052508101906104719190610e70565b6004819055508060055f6101000a81548173ffffffffffffffffffffffffffffffffffffffff021916908373ffffffffffffffffffffffffffffffffffffffff160217905550505050565b5f5f8773ffffffffffffffffffffffffffffffffffffffff16636f307dc36040518163ffffffff1660e01b8152600401602060405180830381865afa158015610507573d5f5f3e3d5ffd5b505050506040513d601f19601f8201168201806040525081019061052b9190610ed6565b90508773ffffffffffffffffffffffffffffffffffffffff16633ba5731030896001875f600281106105605761055f610f01565b5b6020028101906105709190610f3a565b5f0135885f6002811061058657610585610f01565b5b6020028101906105969190610f3a565b60200135895f600281106105ad576105ac610f01565b5b6020028101906105bd9190610f3a565b80604001906105cc9190610f61565b6040518863ffffffff1660e01b81526004016105ee9796959493929190611089565b5f604051808303815f87803b158015610605575f5ffd5b505af1158015610617573d5f5f3e3d5ffd5b505050505f6106c6898989898961062e575f610630565b335b604051602401610644959493929190611100565b6040516020818303038152906040527fa253d29e000000000000000000000000000000000000000000000000000000007bffffffffffffffffffffffffffffffffffffffffffffffffffffffff19166020820180517bffffffffffffffffffffffffffffffffffffffffffffffffffffffff8381831617835250505050610991565b905060035f9054906101000a900473ffffffffffffffffffffffffffffffffffffffff1673ffffffffffffffffffffffffffffffffffffffff16637fb34967604051806060016040528060405180604001604052806001548152602001600454815250815260200160405180604001604052803073ffffffffffffffffffffffffffffffffffffffff168152602001468152508152602001848152508660016002811061077657610775610f01565b5b6020028101906107869190610f3a565b5f01358760016002811061079d5761079c610f01565b5b6020028101906107ad9190610f3a565b60200135886001600281106107c5576107c4610f01565b5b6020028101906107d59190610f3a565b80604001906107e49190610f61565b6040518663ffffffff1660e01b8152600401610804959493929190611218565b5f604051808303815f87803b15801561081b575f5ffd5b505af115801561082d573d5f5f3e3d5ffd5b505050508173ffffffffffffffffffffffffffffffffffffffff1663095ea7b360055f9054906101000a900473ffffffffffffffffffffffffffffffffffffffff168a6040518363ffffffff1660e01b815260040161088d929190611265565b6020604051808303815f875af11580156108a9573d5f5f3e3d5ffd5b505050506040513d601f19601f820116820180604052508101906108cd91906112a0565b5060055f9054906101000a900473ffffffffffffffffffffffffffffffffffffffff1673ffffffffffffffffffffffffffffffffffffffff1663540abf73835f8a8c8b6040518663ffffffff1660e01b81526004016109309594939291906112fe565b5f604051808303815f87803b158015610947575f5ffd5b505af1158015610959573d5f5f3e3d5ffd5b5050505080925050509695505050505050565b60055f9054906101000a900473ffffffffffffffffffffffffffffffffffffffff1681565b5f600167ffffffffffffffff8111156109ad576109ac611362565b5b6040519080825280601f01601f1916602001820160405280156109df5781602001600182028036833780820191505090505b506002836040516109f091906113e1565b602060405180830381855afa158015610a0b573d5f5f3e3d5ffd5b5050506040513d601f19601f82011682018060405250810190610a2e919061140b565b604051602001610a3f929190611481565b604051602081830303815290604052610a57906114d7565b9050919050565b5f73ffffffffffffffffffffffffffffffffffffffff82169050919050565b5f819050919050565b5f610aa0610a9b610a9684610a5e565b610a7d565b610a5e565b9050919050565b5f610ab182610a86565b9050919050565b5f610ac282610aa7565b9050919050565b610ad281610ab8565b82525050565b5f602082019050610aeb5f830184610ac9565b92915050565b5f819050919050565b610b0381610af1565b82525050565b5f602082019050610b1c5f830184610afa565b92915050565b5f819050919050565b610b3481610b22565b82525050565b5f602082019050610b4d5f830184610b2b565b92915050565b5f610b5d82610aa7565b9050919050565b610b6d81610b53565b82525050565b5f602082019050610b865f830184610b64565b92915050565b5f610b9682610aa7565b9050919050565b610ba681610b8c565b82525050565b5f602082019050610bbf5f830184610b9d565b92915050565b5f5ffd5b5f5ffd5b5f610bd782610a5e565b9050919050565b610be781610bcd565b8114610bf1575f5ffd5b50565b5f81359050610c0281610bde565b92915050565b610c1181610af1565b8114610c1b575f5ffd5b50565b5f81359050610c2c81610c08565b92915050565b5f5f5f60608486031215610c4957610c48610bc5565b5b5f610c5686828701610bf4565b9350506020610c6786828701610c1e565b9250506040610c7886828701610bf4565b9150509250925092565b610c8b81610b22565b8114610c95575f5ffd5b50565b5f81359050610ca681610c82565b92915050565b5f63ffffffff82169050919050565b610cc481610cac565b8114610cce575f5ffd5b50565b5f81359050610cdf81610cbb565b92915050565b5f8115159050919050565b610cf981610ce5565b8114610d03575f5ffd5b50565b5f81359050610d1481610cf0565b92915050565b5f5ffd5b5f81905082602060020282011115610d3957610d38610d1a565b5b92915050565b5f5f5f5f5f5f60c08789031215610d5957610d58610bc5565b5b5f610d6689828a01610bf4565b9650506020610d7789828a01610c98565b9550506040610d8889828a01610bf4565b9450506060610d9989828a01610cd1565b9350506080610daa89828a01610d06565b92505060a087013567ffffffffffffffff811115610dcb57610dca610bc9565b5b610dd789828a01610d1e565b9150509295509295509295565b5f610dee82610aa7565b9050919050565b610dfe81610de4565b82525050565b5f602082019050610e175f830184610df5565b92915050565b5f81519050610e2b81610bde565b92915050565b5f60208284031215610e4657610e45610bc5565b5b5f610e5384828501610e1d565b91505092915050565b5f81519050610e6a81610c82565b92915050565b5f60208284031215610e8557610e84610bc5565b5b5f610e9284828501610e5c565b91505092915050565b5f610ea582610bcd565b9050919050565b610eb581610e9b565b8114610ebf575f5ffd5b50565b5f81519050610ed081610eac565b92915050565b5f60208284031215610eeb57610eea610bc5565b5b5f610ef884828501610ec2565b91505092915050565b7f4e487b71000000000000000000000000000000000000000000000000000000005f52603260045260245ffd5b5f5ffd5b5f5ffd5b5f5ffd5b5f82356001606003833603038112610f5557610f54610f2e565b5b80830191505092915050565b5f5f83356001602003843603038112610f7d57610f7c610f2e565b5b80840192508235915067ffffffffffffffff821115610f9f57610f9e610f32565b5b602083019250602082023603831315610fbb57610fba610f36565b5b509250929050565b610fcc81610bcd565b82525050565b610fdb81610ce5565b82525050565b5f610ffb610ff6610ff184610b22565b610a7d565b610b22565b9050919050565b61100b81610fe1565b82525050565b5f82825260208201905092915050565b5f5ffd5b82818337505050565b5f6110398385611011565b93507f07ffffffffffffffffffffffffffffffffffffffffffffffffffffffffffffff83111561106c5761106b611021565b5b60208302925061107d838584611025565b82840190509392505050565b5f60c08201905061109c5f83018a610fc3565b6110a96020830189610b2b565b6110b66040830188610fd2565b6110c36060830187611002565b6110d06080830186610b2b565b81810360a08301526110e381848661102e565b905098975050505050505050565b6110fa81610cac565b82525050565b5f60a0820190506111135f830188610fc3565b6111206020830187610b2b565b61112d6040830186610fc3565b61113a60608301856110f1565b6111476080830184610fc3565b9695505050505050565b61115a81610af1565b82525050565b61116981610b22565b82525050565b604082015f8201516111835f850182611151565b5060208201516111966020850182611160565b50505050565b6111a581610bcd565b82525050565b604082015f8201516111bf5f85018261119c565b5060208201516111d26020850182611160565b50505050565b60a082015f8201516111ec5f85018261116f565b5060208201516111ff60408501826111ab565b5060408201516112126080850182611151565b50505050565b5f6101008201905061122c5f8301886111d8565b61123960a0830187611002565b61124660c0830186610b2b565b81810360e083015261125981848661102e565b90509695505050505050565b5f6040820190506112785f830185610fc3565b6112856020830184610b2b565b9392505050565b5f8151905061129a81610cf0565b92915050565b5f602082840312156112b5576112b4610bc5565b5b5f6112c28482850161128c565b91505092915050565b5f82825260208201905092915050565b50565b5f6112e95f836112cb565b91506112f4826112db565b5f82019050919050565b5f60c0820190506113115f830188610fc3565b61131e6020830187610fc3565b61132b6040830186610fc3565b6113386060830185610b2b565b61134560808301846110f1565b81810360a0830152611356816112de565b90509695505050505050565b7f4e487b71000000000000000000000000000000000000000000000000000000005f52604160045260245ffd5b5f81519050919050565b5f81905092915050565b8281835e5f83830152505050565b5f6113bb8261138f565b6113c58185611399565b93506113d58185602086016113a3565b80840191505092915050565b5f6113ec82846113b1565b915081905092915050565b5f8151905061140581610c08565b92915050565b5f602082840312156114205761141f610bc5565b5b5f61142d848285016113f7565b91505092915050565b5f7fffffffffffffffffffffffffffffffffffffffffffffffffffffffffffffff0082169050919050565b5f819050919050565b61147b61147682611436565b611461565b82525050565b5f61148c82856113b1565b9150611498828461146a565b601f820191508190509392505050565b5f819050602082019050919050565b5f6114c28251610af1565b80915050919050565b5f82821b905092915050565b5f6114e18261138f565b826114eb846114a8565b90506114f6816114b7565b92506020821015611536576115317fffffffffffffffffffffffffffffffffffffffffffffffffffffffffffffffff836020036008026114cb565b831692505b505091905056fea2646970667358221220e5d3fb74dca2802a99408c23a4e9d107233a2bf62fd0f2956c0f546ddba019e564736f6c634300081b0033","linkReferences":{}},"methodIdentifiers":{"baseStandardBridge()":"f5c79645","bridgeToBase(address,uint256,address,uint32,bool,(uint256,uint256,bytes32[])[2])":"f5aa4a42","initialize(address,bytes32,address)":"d26b3e6e","l2BridgeAddress()":"934746a7","outbox()":"ce11e6ab","registry()":"7b103999","rollup()":"cb23bcb5","rollupVersion()":"b0893887"},"id":0}