{"abi":[{"type":"function","name":"exactInputSingle","inputs":[{"name":"params","type":"tuple","internalType":"struct MockSwapRouter.ExactInputSingleParams","components":[{"name":"tokenIn","type":"address","internalType":"address"},{"name":"tokenOut","type":"address","internalType":"address"},{"name":"fee","type":"uint24","internalType":"uint24"},{"name":"recipient","type":"address","internalType":"address"},{"name":"deadline","type":"uint256","internalType":"uint256"},{"name":"amountIn","type":"uint256","internalType":"uint256"},{"name":"amountOutMinimum","type":"uint256","internalType":"uint256"},{"name":"sqrtPriceLimitX96","type":"uint160","internalType":"uint160"}]}],"outputs":[{"name":"amountOut","type":"uint256","internalType":"uint256"}],"stateMutability":"nonpayable"},{"type":"event","name":"MockSwap","inputs":[{"name":"caller","type":"address","indexed":true,"internalType":"address"},{"name":"tokenIn","type":"address","indexed":true,"internalType":"address"},{"name":"tokenOut","type":"address","indexed":true,"internalType":"address"},{"name":"amountIn","type":"uint256","indexed":false,"internalType":"uint256"},{"name":"amountOut","type":"uint256","indexed":false,"internalType":"uint256"},{"name":"recipient","type":"address","indexed":false,"internalType":"address"}],"anonymous":false}],"bytecode":{"object":"0x6080604052348015600e575f5ffd5b506108f18061001c5f395ff3fe608060405234801561000f575f5ffd5b5060043610610029575f3560e01c8063414bf3891461002d575b5f5ffd5b61004760048036038101906100429190610453565b61005d565b6040516100549190610497565b60405180910390f35b5f81608001354211156100a5576040517f08c379a000000000000000000000000000000000000000000000000000000000815260040161009c9061050a565b60405180910390fd5b815f0160208101906100b79190610582565b73ffffffffffffffffffffffffffffffffffffffff166323b872dd33308560a001356040518463ffffffff1660e01b81526004016100f7939291906105bc565b6020604051808303815f875af1158015610113573d5f5f3e3d5ffd5b505050506040513d601f19601f820116820180604052508101906101379190610626565b610176576040517f08c379a000000000000000000000000000000000000000000000000000000000815260040161016d9061069b565b60405180910390fd5b8160a0013590508160c001358110156101c4576040517f08c379a00000000000000000000000000000000000000000000000000000000081526004016101bb90610703565b60405180910390fd5b808260200160208101906101d89190610582565b73ffffffffffffffffffffffffffffffffffffffff166370a08231306040518263ffffffff1660e01b81526004016102109190610721565b602060405180830381865afa15801561022b573d5f5f3e3d5ffd5b505050506040513d601f19601f8201168201806040525081019061024f9190610764565b1015610290576040517f08c379a0000000000000000000000000000000000000000000000000000000008152600401610287906107d9565b60405180910390fd5b8160200160208101906102a39190610582565b73ffffffffffffffffffffffffffffffffffffffff1663a9059cbb8360600160208101906102d19190610582565b836040518363ffffffff1660e01b81526004016102ef9291906107f7565b6020604051808303815f875af115801561030b573d5f5f3e3d5ffd5b505050506040513d601f19601f8201168201806040525081019061032f9190610626565b61036e576040517f08c379a000000000000000000000000000000000000000000000000000000000815260040161036590610868565b60405180910390fd5b8160200160208101906103819190610582565b73ffffffffffffffffffffffffffffffffffffffff16825f0160208101906103a99190610582565b73ffffffffffffffffffffffffffffffffffffffff163373ffffffffffffffffffffffffffffffffffffffff167ffee7d3f7e6fdfd9d2c7c203a0f3b345b4acdec1b036c6ada00d2e29b260786328560a00135858760600160208101906104109190610582565b60405161041f93929190610886565b60405180910390a4919050565b5f5ffd5b5f5ffd5b5f610100828403121561044a57610449610430565b5b81905092915050565b5f61010082840312156104695761046861042c565b5b5f61047684828501610434565b91505092915050565b5f819050919050565b6104918161047f565b82525050565b5f6020820190506104aa5f830184610488565b92915050565b5f82825260208201905092915050565b7f646561646c696e650000000000000000000000000000000000000000000000005f82015250565b5f6104f46008836104b0565b91506104ff826104c0565b602082019050919050565b5f6020820190508181035f830152610521816104e8565b9050919050565b5f73ffffffffffffffffffffffffffffffffffffffff82169050919050565b5f61055182610528565b9050919050565b61056181610547565b811461056b575f5ffd5b50565b5f8135905061057c81610558565b92915050565b5f602082840312156105975761059661042c565b5b5f6105a48482850161056e565b91505092915050565b6105b681610547565b82525050565b5f6060820190506105cf5f8301866105ad565b6105dc60208301856105ad565b6105e96040830184610488565b949350505050565b5f8115159050919050565b610605816105f1565b811461060f575f5ffd5b50565b5f81519050610620816105fc565b92915050565b5f6020828403121561063b5761063a61042c565b5b5f61064884828501610612565b91505092915050565b7f7472616e7366657246726f6d20696e00000000000000000000000000000000005f82015250565b5f610685600f836104b0565b915061069082610651565b602082019050919050565b5f6020820190508181035f8301526106b281610679565b9050919050565b7f736c6970706167650000000000000000000000000000000000000000000000005f82015250565b5f6106ed6008836104b0565b91506106f8826106b9565b602082019050919050565b5f6020820190508181035f83015261071a816106e1565b9050919050565b5f6020820190506107345f8301846105ad565b92915050565b6107438161047f565b811461074d575f5ffd5b50565b5f8151905061075e8161073a565b92915050565b5f602082840312156107795761077861042c565b5b5f61078684828501610750565b91505092915050565b7f726f7574657220756e64657266756e64656400000000000000000000000000005f82015250565b5f6107c36012836104b0565b91506107ce8261078f565b602082019050919050565b5f6020820190508181035f8301526107f0816107b7565b9050919050565b5f60408201905061080a5f8301856105ad565b6108176020830184610488565b9392505050565b7f7472616e73666572206f757400000000000000000000000000000000000000005f82015250565b5f610852600c836104b0565b915061085d8261081e565b602082019050919050565b5f6020820190508181035f83015261087f81610846565b9050919050565b5f6060820190506108995f830186610488565b6108a66020830185610488565b6108b360408301846105ad565b94935050505056fea26469706673582212209d15cbc33c75b9fee133d2e2199d8c7fc195b01d51f40b27e9e03a043c0c208e64736f6c634300081b0033","linkReferences":{}},"methodIdentifiers":{"exactInputSingle((address,address,uint24,address,uint256,uint256,uint256,uint160))":"414bf389"},"id":0}