{"abi":[{"type":"function","name":"initialize","inputs":[{"name":"_registry","type":"address","internalType":"address"},{"name":"_l2UniswapAddress","type":"bytes32","internalType":"bytes32"},{"name":"_router","type":"address","internalType":"address"}],"outputs":[],"stateMutability":"nonpayable"},{"type":"function","name":"l2UniswapAddress","inputs":[],"outputs":[{"name":"","type":"bytes32","internalType":"bytes32"}],"stateMutability":"view"},{"type":"function","name":"outbox","inputs":[],"outputs":[{"name":"","type":"address","internalType":"contract IOutbox"}],"stateMutability":"view"},{"type":"function","name":"registry","inputs":[],"outputs":[{"name":"","type":"address","internalType":"contract IRegistry"}],"stateMutability":"view"},{"type":"function","name":"rollup","inputs":[],"outputs":[{"name":"","type":"address","internalType":"contract IRollup"}],"stateMutability":"view"},{"type":"function","name":"rollupVersion","inputs":[],"outputs":[{"name":"","type":"uint256","internalType":"uint256"}],"stateMutability":"view"},{"type":"function","name":"router","inputs":[],"outputs":[{"name":"","type":"address","internalType":"contract ISwapRouter"}],"stateMutability":"view"},{"type":"function","name":"swapPrivate","inputs":[{"name":"_inputTokenPortal","type":"address","internalType":"address"},{"name":"_inAmount","type":"uint256","internalType":"uint256"},{"name":"_uniswapFeeTier","type":"uint24","internalType":"uint24"},{"name":"_outputTokenPortal","type":"address","internalType":"address"},{"name":"_amountOutMinimum","type":"uint256","internalType":"uint256"},{"name":"_secretHashForL1ToL2Message","type":"bytes32","internalType":"bytes32"},{"name":"_withCaller","type":"bool","internalType":"bool"},{"name":"_outboxMessageMetadata","type":"tuple[2]","internalType":"struct DataStructures.OutboxMessageMetadata[2]","components":[{"name":"_epoch","type":"uint256","internalType":"Epoch"},{"name":"_leafIndex","type":"uint256","internalType":"uint256"},{"name":"_path","type":"bytes32[]","internalType":"bytes32[]"}]}],"outputs":[{"name":"","type":"bytes32","internalType":"bytes32"},{"name":"","type":"uint256","internalType":"uint256"}],"stateMutability":"nonpayable"}],"bytecode":{"object":"0x6080604052348015600e575f5ffd5b5061196c8061001c5f395ff3fe608060405234801561000f575f5ffd5b5060043610610086575f3560e01c8063cb23bcb511610059578063cb23bcb514610115578063ce11e6ab14610133578063d26b3e6e14610151578063f887ea401461016d57610086565b8063261809231461008a57806373ec12a6146100a85780637b103999146100d9578063b0893887146100f7575b5f5ffd5b61009261018b565b60405161009f9190610d5f565b60405180910390f35b6100c260048036038101906100bd9190610ec9565b610191565b6040516100d0929190610fa5565b60405180910390f35b6100e16108de565b6040516100ee9190611027565b60405180910390f35b6100ff610903565b60405161010c9190611040565b60405180910390f35b61011d610909565b60405161012a9190611079565b60405180910390f35b61013b61092e565b60405161014891906110b2565b60405180910390f35b61016b600480360381019061016691906110cb565b610953565b005b610175610c0c565b604051610182919061113b565b60405180910390f35b60025481565b5f5f61019b610cfd565b8a73ffffffffffffffffffffffffffffffffffffffff16636f307dc36040518163ffffffff1660e01b8152600401602060405180830381865afa1580156101e4573d5f5f3e3d5ffd5b505050506040513d601f19601f82011682018060405250810190610208919061118f565b815f019073ffffffffffffffffffffffffffffffffffffffff16908173ffffffffffffffffffffffffffffffffffffffff16815250508773ffffffffffffffffffffffffffffffffffffffff16636f307dc36040518163ffffffff1660e01b8152600401602060405180830381865afa158015610287573d5f5f3e3d5ffd5b505050506040513d601f19601f820116820180604052508101906102ab919061118f565b816020019073ffffffffffffffffffffffffffffffffffffffff16908173ffffffffffffffffffffffffffffffffffffffff16815250508a73ffffffffffffffffffffffffffffffffffffffff16633ba57310308c6001885f60028110610315576103146111ba565b5b60200281019061032591906111f3565b5f0135895f6002811061033b5761033a6111ba565b5b60200281019061034b91906111f3565b602001358a5f60028110610362576103616111ba565b5b60200281019061037291906111f3565b8060400190610381919061121a565b6040518863ffffffff1660e01b81526004016103a39796959493929190611342565b5f604051808303815f87803b1580156103ba575f5ffd5b505af11580156103cc573d5f5f3e3d5ffd5b5050505061047e8b8b8b8b8b8b8b6103e4575f6103e6565b335b6040516024016103fc97969594939291906113b9565b6040516020818303038152906040527f84e55078000000000000000000000000000000000000000000000000000000007bffffffffffffffffffffffffffffffffffffffffffffffffffffffff19166020820180517bffffffffffffffffffffffffffffffffffffffffffffffffffffffff8381831617835250505050610c30565b81604001818152505060045f9054906101000a900473ffffffffffffffffffffffffffffffffffffffff1673ffffffffffffffffffffffffffffffffffffffff16637fb34967604051806060016040528060405180604001604052806002548152602001600554815250815260200160405180604001604052803073ffffffffffffffffffffffffffffffffffffffff168152602001468152508152602001846040015181525086600160028110610539576105386111ba565b5b60200281019061054991906111f3565b5f0135876001600281106105605761055f6111ba565b5b60200281019061057091906111f3565b6020013588600160028110610588576105876111ba565b5b60200281019061059891906111f3565b80604001906105a7919061121a565b6040518663ffffffff1660e01b81526004016105c79594939291906114ed565b5f604051808303815f87803b1580156105de575f5ffd5b505af11580156105f0573d5f5f3e3d5ffd5b50505050805f015173ffffffffffffffffffffffffffffffffffffffff1663095ea7b35f5f9054906101000a900473ffffffffffffffffffffffffffffffffffffffff168c6040518363ffffffff1660e01b815260040161065292919061153a565b6020604051808303815f875af115801561066e573d5f5f3e3d5ffd5b505050506040513d601f19601f820116820180604052508101906106929190611575565b505f604051806101000160405280835f015173ffffffffffffffffffffffffffffffffffffffff168152602001836020015173ffffffffffffffffffffffffffffffffffffffff1681526020018b62ffffff1681526020013073ffffffffffffffffffffffffffffffffffffffff1681526020014281526020018c81526020018981526020015f73ffffffffffffffffffffffffffffffffffffffff1681525090505f5f5f9054906101000a900473ffffffffffffffffffffffffffffffffffffffff1673ffffffffffffffffffffffffffffffffffffffff1663414bf389836040518263ffffffff1660e01b815260040161078e919061165e565b6020604051808303815f875af11580156107aa573d5f5f3e3d5ffd5b505050506040513d601f19601f820116820180604052508101906107ce919061168c565b9050826020015173ffffffffffffffffffffffffffffffffffffffff1663095ea7b38b836040518363ffffffff1660e01b815260040161080f92919061153a565b6020604051808303815f875af115801561082b573d5f5f3e3d5ffd5b505050506040513d601f19601f8201168201806040525081019061084f9190611575565b508973ffffffffffffffffffffffffffffffffffffffff1663ddca83dd828a6040518363ffffffff1660e01b815260040161088b9291906116b7565b60408051808303815f875af11580156108a6573d5f5f3e3d5ffd5b505050506040513d601f19601f820116820180604052508101906108ca91906116f2565b945094505050509850989650505050505050565b60015f9054906101000a900473ffffffffffffffffffffffffffffffffffffffff1681565b60055481565b60035f9054906101000a900473ffffffffffffffffffffffffffffffffffffffff1681565b60045f9054906101000a900473ffffffffffffffffffffffffffffffffffffffff1681565b8260015f6101000a81548173ffffffffffffffffffffffffffffffffffffffff021916908373ffffffffffffffffffffffffffffffffffffffff16021790555081600281905550805f5f6101000a81548173ffffffffffffffffffffffffffffffffffffffff021916908373ffffffffffffffffffffffffffffffffffffffff16021790555060015f9054906101000a900473ffffffffffffffffffffffffffffffffffffffff1673ffffffffffffffffffffffffffffffffffffffff1663971b0e6b6040518163ffffffff1660e01b8152600401602060405180830381865afa158015610a43573d5f5f3e3d5ffd5b505050506040513d601f19601f82011682018060405250810190610a679190611744565b60035f6101000a81548173ffffffffffffffffffffffffffffffffffffffff021916908373ffffffffffffffffffffffffffffffffffffffff16021790555060035f9054906101000a900473ffffffffffffffffffffffffffffffffffffffff1673ffffffffffffffffffffffffffffffffffffffff1663a32fbb7b6040518163ffffffff1660e01b8152600401602060405180830381865afa158015610b10573d5f5f3e3d5ffd5b505050506040513d601f19601f82011682018060405250810190610b349190611744565b60045f6101000a81548173ffffffffffffffffffffffffffffffffffffffff021916908373ffffffffffffffffffffffffffffffffffffffff16021790555060035f9054906101000a900473ffffffffffffffffffffffffffffffffffffffff1673ffffffffffffffffffffffffffffffffffffffff16630d8e6e2c6040518163ffffffff1660e01b8152600401602060405180830381865afa158015610bdd573d5f5f3e3d5ffd5b505050506040513d601f19601f82011682018060405250810190610c01919061168c565b600581905550505050565b5f5f9054906101000a900473ffffffffffffffffffffffffffffffffffffffff1681565b5f600167ffffffffffffffff811115610c4c57610c4b61176f565b5b6040519080825280601f01601f191660200182016040528015610c7e5781602001600182028036833780820191505090505b50600283604051610c8f91906117ee565b602060405180830381855afa158015610caa573d5f5f3e3d5ffd5b5050506040513d601f19601f82011682018060405250810190610ccd9190611804565b604051602001610cde92919061187a565b604051602081830303815290604052610cf6906118d0565b9050919050565b60405180606001604052805f73ffffffffffffffffffffffffffffffffffffffff1681526020015f73ffffffffffffffffffffffffffffffffffffffff1681526020015f81525090565b5f819050919050565b610d5981610d47565b82525050565b5f602082019050610d725f830184610d50565b92915050565b5f5ffd5b5f5ffd5b5f73ffffffffffffffffffffffffffffffffffffffff82169050919050565b5f610da982610d80565b9050919050565b610db981610d9f565b8114610dc3575f5ffd5b50565b5f81359050610dd481610db0565b92915050565b5f819050919050565b610dec81610dda565b8114610df6575f5ffd5b50565b5f81359050610e0781610de3565b92915050565b5f62ffffff82169050919050565b610e2481610e0d565b8114610e2e575f5ffd5b50565b5f81359050610e3f81610e1b565b92915050565b610e4e81610d47565b8114610e58575f5ffd5b50565b5f81359050610e6981610e45565b92915050565b5f8115159050919050565b610e8381610e6f565b8114610e8d575f5ffd5b50565b5f81359050610e9e81610e7a565b92915050565b5f5ffd5b5f81905082602060020282011115610ec357610ec2610ea4565b5b92915050565b5f5f5f5f5f5f5f5f610100898b031215610ee657610ee5610d78565b5b5f610ef38b828c01610dc6565b9850506020610f048b828c01610df9565b9750506040610f158b828c01610e31565b9650506060610f268b828c01610dc6565b9550506080610f378b828c01610df9565b94505060a0610f488b828c01610e5b565b93505060c0610f598b828c01610e90565b92505060e089013567ffffffffffffffff811115610f7a57610f79610d7c565b5b610f868b828c01610ea8565b9150509295985092959890939650565b610f9f81610dda565b82525050565b5f604082019050610fb85f830185610d50565b610fc56020830184610f96565b9392505050565b5f819050919050565b5f610fef610fea610fe584610d80565b610fcc565b610d80565b9050919050565b5f61100082610fd5565b9050919050565b5f61101182610ff6565b9050919050565b61102181611007565b82525050565b5f60208201905061103a5f830184611018565b92915050565b5f6020820190506110535f830184610f96565b92915050565b5f61106382610ff6565b9050919050565b61107381611059565b82525050565b5f60208201905061108c5f83018461106a565b92915050565b5f61109c82610ff6565b9050919050565b6110ac81611092565b82525050565b5f6020820190506110c55f8301846110a3565b92915050565b5f5f5f606084860312156110e2576110e1610d78565b5b5f6110ef86828701610dc6565b935050602061110086828701610e5b565b925050604061111186828701610dc6565b9150509250925092565b5f61112582610ff6565b9050919050565b6111358161111b565b82525050565b5f60208201905061114e5f83018461112c565b92915050565b5f61115e82610d9f565b9050919050565b61116e81611154565b8114611178575f5ffd5b50565b5f8151905061118981611165565b92915050565b5f602082840312156111a4576111a3610d78565b5b5f6111b18482850161117b565b91505092915050565b7f4e487b71000000000000000000000000000000000000000000000000000000005f52603260045260245ffd5b5f5ffd5b5f5ffd5b5f5ffd5b5f8235600160600383360303811261120e5761120d6111e7565b5b80830191505092915050565b5f5f83356001602003843603038112611236576112356111e7565b5b80840192508235915067ffffffffffffffff821115611258576112576111eb565b5b602083019250602082023603831315611274576112736111ef565b5b509250929050565b61128581610d9f565b82525050565b61129481610e6f565b82525050565b5f6112b46112af6112aa84610dda565b610fcc565b610dda565b9050919050565b6112c48161129a565b82525050565b5f82825260208201905092915050565b5f5ffd5b82818337505050565b5f6112f283856112ca565b93507f07ffffffffffffffffffffffffffffffffffffffffffffffffffffffffffffff831115611325576113246112da565b5b6020830292506113368385846112de565b82840190509392505050565b5f60c0820190506113555f83018a61127c565b6113626020830189610f96565b61136f604083018861128b565b61137c60608301876112bb565b6113896080830186610f96565b81810360a083015261139c8184866112e7565b905098975050505050505050565b6113b381610e0d565b82525050565b5f60e0820190506113cc5f83018a61127c565b6113d96020830189610f96565b6113e660408301886113aa565b6113f3606083018761127c565b6114006080830186610f96565b61140d60a0830185610d50565b61141a60c083018461127c565b98975050505050505050565b61142f81610d47565b82525050565b61143e81610dda565b82525050565b604082015f8201516114585f850182611426565b50602082015161146b6020850182611435565b50505050565b61147a81610d9f565b82525050565b604082015f8201516114945f850182611471565b5060208201516114a76020850182611435565b50505050565b60a082015f8201516114c15f850182611444565b5060208201516114d46040850182611480565b5060408201516114e76080850182611426565b50505050565b5f610100820190506115015f8301886114ad565b61150e60a08301876112bb565b61151b60c0830186610f96565b81810360e083015261152e8184866112e7565b90509695505050505050565b5f60408201905061154d5f83018561127c565b61155a6020830184610f96565b9392505050565b5f8151905061156f81610e7a565b92915050565b5f6020828403121561158a57611589610d78565b5b5f61159784828501611561565b91505092915050565b6115a981610e0d565b82525050565b6115b881610d80565b82525050565b61010082015f8201516115d35f850182611471565b5060208201516115e66020850182611471565b5060408201516115f960408501826115a0565b50606082015161160c6060850182611471565b50608082015161161f6080850182611435565b5060a082015161163260a0850182611435565b5060c082015161164560c0850182611435565b5060e082015161165860e08501826115af565b50505050565b5f610100820190506116725f8301846115be565b92915050565b5f8151905061168681610de3565b92915050565b5f602082840312156116a1576116a0610d78565b5b5f6116ae84828501611678565b91505092915050565b5f6040820190506116ca5f830185610f96565b6116d76020830184610d50565b9392505050565b5f815190506116ec81610e45565b92915050565b5f5f6040838503121561170857611707610d78565b5b5f611715858286016116de565b925050602061172685828601611678565b9150509250929050565b5f8151905061173e81610db0565b92915050565b5f6020828403121561175957611758610d78565b5b5f61176684828501611730565b91505092915050565b7f4e487b71000000000000000000000000000000000000000000000000000000005f52604160045260245ffd5b5f81519050919050565b5f81905092915050565b8281835e5f83830152505050565b5f6117c88261179c565b6117d281856117a6565b93506117e28185602086016117b0565b80840191505092915050565b5f6117f982846117be565b915081905092915050565b5f6020828403121561181957611818610d78565b5b5f611826848285016116de565b91505092915050565b5f7fffffffffffffffffffffffffffffffffffffffffffffffffffffffffffffff0082169050919050565b5f819050919050565b61187461186f8261182f565b61185a565b82525050565b5f61188582856117be565b91506118918284611863565b601f820191508190509392505050565b5f819050602082019050919050565b5f6118bb8251610d47565b80915050919050565b5f82821b905092915050565b5f6118da8261179c565b826118e4846118a1565b90506118ef816118b0565b9250602082101561192f5761192a7fffffffffffffffffffffffffffffffffffffffffffffffffffffffffffffffff836020036008026118c4565b831692505b505091905056fea2646970667358221220aa5d318890a1d515aa1db524e583f43db354ea1c37ccfc93f6763856068eba6964736f6c634300081b0033","linkReferences":{}},"methodIdentifiers":{"initialize(address,bytes32,address)":"d26b3e6e","l2UniswapAddress()":"26180923","outbox()":"ce11e6ab","registry()":"7b103999","rollup()":"cb23bcb5","rollupVersion()":"b0893887","router()":"f887ea40","swapPrivate(address,uint256,uint24,address,uint256,bytes32,bool,(uint256,uint256,bytes32[])[2])":"73ec12a6"},"id":0}